{
  "_format": "hh-sol-artifact-1",
  "contractName": "ReceiverExample",
  "sourceName": "contracts/ReceiverExample/ReceiverExample.sol",
  "abi": [
    {
      "inputs": [
        {
          "internalType": "address",
          "name": "_switchboard",
          "type": "address"
        },
        {
          "internalType": "address",
          "name": "_functionId",
          "type": "address"
        }
      ],
      "stateMutability": "nonpayable",
      "type": "constructor"
    },
    {
      "inputs": [
        {
          "internalType": "uint256",
          "name": "value",
          "type": "uint256"
        }
      ],
      "name": "callback",
      "outputs": [],
      "stateMutability": "nonpayable",
      "type": "function"
    },
    {
      "inputs": [],
      "name": "getLatestTrigger",
      "outputs": [
        {
          "internalType": "uint256",
          "name": "",
          "type": "uint256"
        }
      ],
      "stateMutability": "view",
      "type": "function"
    },
    {
      "inputs": [],
      "name": "randomValue",
      "outputs": [
        {
          "internalType": "uint256",
          "name": "",
          "type": "uint256"
        }
      ],
      "stateMutability": "view",
      "type": "function"
    }
  ],
  "bytecode": "0x60a060405234801561001057600080fd5b5060405161024c38038061024c83398101604081905261002f91610073565b6001600160a01b03918216608052600180546001600160a01b031916919092161790556100a6565b80516001600160a01b038116811461006e57600080fd5b919050565b6000806040838503121561008657600080fd5b61008f83610057565b915061009d60208401610057565b90509250929050565b60805161018c6100c0600039600060f6015261018c6000f3fe608060405234801561001057600080fd5b50600436106100415760003560e01c8063276801ec146100465780639c793b4814610061578063ff585caf14610069575b600080fd5b61004f60005481565b60405190815260200160405180910390f35b60025461004f565b61007c61007736600461013d565b61007e565b005b60006100886100e7565b6001549091506001600160a01b038083169116146100dd5760405162461bcd60e51b815260206004820152600e60248201526d24b73b30b634b21039b2b73232b960911b604482015260640160405180910390fd5b5060005542600255565b336014361080159061012a57507f00000000000000000000000000000000000000000000000000000000000000006001600160a01b0316816001600160a01b0316145b1561013a575060131936013560601c5b90565b60006020828403121561014f57600080fd5b503591905056fea264697066735822122062423b6b15bded8206a50abff0866b6996c17ad2af161b0fc6aaba6a12f9146264736f6c63430008110033",
  "linkReferences": {},
  "deployedLinkReferences": {}
}