{"contracts/ReceiverExample/ReceiverExample.sol":{"ReceiverExample":{"abi":[{"inputs":[{"internalType":"address","name":"_switchboard","type":"address"},{"internalType":"address","name":"_functionId","type":"address"}],"stateMutability":"nonpayable","type":"constructor"},{"inputs":[{"internalType":"uint256","name":"value","type":"uint256"}],"name":"callback","outputs":[],"stateMutability":"nonpayable","type":"function"},{"inputs":[],"name":"getLatestTrigger","outputs":[{"internalType":"uint256","name":"","type":"uint256"}],"stateMutability":"view","type":"function"},{"inputs":[],"name":"randomValue","outputs":[{"internalType":"uint256","name":"","type":"uint256"}],"stateMutability":"view","type":"function"}],"evm":{"bytecode":{"linkReferences":{},"object":"60a060405234801561001057600080fd5b5060405161024c38038061024c83398101604081905261002f91610073565b6001600160a01b03918216608052600180546001600160a01b031916919092161790556100a6565b80516001600160a01b038116811461006e57600080fd5b919050565b6000806040838503121561008657600080fd5b61008f83610057565b915061009d60208401610057565b90509250929050565b60805161018c6100c0600039600060f6015261018c6000f3fe608060405234801561001057600080fd5b50600436106100415760003560e01c8063276801ec146100465780639c793b4814610061578063ff585caf14610069575b600080fd5b61004f60005481565b60405190815260200160405180910390f35b60025461004f565b61007c61007736600461013d565b61007e565b005b60006100886100e7565b6001549091506001600160a01b038083169116146100dd5760405162461bcd60e51b815260206004820152600e60248201526d24b73b30b634b21039b2b73232b960911b604482015260640160405180910390fd5b5060005542600255565b336014361080159061012a57507f00000000000000000000000000000000000000000000000000000000000000006001600160a01b0316816001600160a01b0316145b1561013a575060131936013560601c5b90565b60006020828403121561014f57600080fd5b503591905056fea264697066735822122062423b6b15bded8206a50abff0866b6996c17ad2af161b0fc6aaba6a12f9146264736f6c63430008110033","opcodes":"PUSH1 0xA0 PUSH1 0x40 MSTORE CALLVALUE DUP1 ISZERO PUSH2 0x10 JUMPI PUSH1 0x0 DUP1 REVERT JUMPDEST POP PUSH1 0x40 MLOAD PUSH2 0x24C CODESIZE SUB DUP1 PUSH2 0x24C DUP4 CODECOPY DUP2 ADD PUSH1 0x40 DUP2 SWAP1 MSTORE PUSH2 0x2F SWAP2 PUSH2 0x73 JUMP JUMPDEST PUSH1 0x1 PUSH1 0x1 PUSH1 0xA0 SHL SUB SWAP2 DUP3 AND PUSH1 0x80 MSTORE PUSH1 0x1 DUP1 SLOAD PUSH1 0x1 PUSH1 0x1 PUSH1 0xA0 SHL SUB NOT AND SWAP2 SWAP1 SWAP3 AND OR SWAP1 SSTORE PUSH2 0xA6 JUMP JUMPDEST DUP1 MLOAD PUSH1 0x1 PUSH1 0x1 PUSH1 0xA0 SHL SUB DUP2 AND DUP2 EQ PUSH2 0x6E JUMPI PUSH1 0x0 DUP1 REVERT JUMPDEST SWAP2 SWAP1 POP JUMP JUMPDEST PUSH1 0x0 DUP1 PUSH1 0x40 DUP4 DUP6 SUB SLT ISZERO PUSH2 0x86 JUMPI PUSH1 0x0 DUP1 REVERT JUMPDEST PUSH2 0x8F DUP4 PUSH2 0x57 JUMP JUMPDEST SWAP2 POP PUSH2 0x9D PUSH1 0x20 DUP5 ADD PUSH2 0x57 JUMP JUMPDEST SWAP1 POP SWAP3 POP SWAP3 SWAP1 POP JUMP JUMPDEST PUSH1 0x80 MLOAD PUSH2 0x18C PUSH2 0xC0 PUSH1 0x0 CODECOPY PUSH1 0x0 PUSH1 0xF6 ADD MSTORE PUSH2 0x18C PUSH1 0x0 RETURN INVALID PUSH1 0x80 PUSH1 0x40 MSTORE CALLVALUE DUP1 ISZERO PUSH2 0x10 JUMPI PUSH1 0x0 DUP1 REVERT JUMPDEST POP PUSH1 0x4 CALLDATASIZE LT PUSH2 0x41 JUMPI PUSH1 0x0 CALLDATALOAD PUSH1 0xE0 SHR DUP1 PUSH4 0x276801EC EQ PUSH2 0x46 JUMPI DUP1 PUSH4 0x9C793B48 EQ PUSH2 0x61 JUMPI DUP1 PUSH4 0xFF585CAF EQ PUSH2 0x69 JUMPI JUMPDEST PUSH1 0x0 DUP1 REVERT JUMPDEST PUSH2 0x4F PUSH1 0x0 SLOAD DUP2 JUMP JUMPDEST PUSH1 0x40 MLOAD SWAP1 DUP2 MSTORE PUSH1 0x20 ADD PUSH1 0x40 MLOAD DUP1 SWAP2 SUB SWAP1 RETURN JUMPDEST PUSH1 0x2 SLOAD PUSH2 0x4F JUMP JUMPDEST PUSH2 0x7C PUSH2 0x77 CALLDATASIZE PUSH1 0x4 PUSH2 0x13D JUMP JUMPDEST PUSH2 0x7E JUMP JUMPDEST STOP JUMPDEST PUSH1 0x0 PUSH2 0x88 PUSH2 0xE7 JUMP JUMPDEST PUSH1 0x1 SLOAD SWAP1 SWAP2 POP PUSH1 0x1 PUSH1 0x1 PUSH1 0xA0 SHL SUB DUP1 DUP4 AND SWAP2 AND EQ PUSH2 0xDD JUMPI PUSH1 0x40 MLOAD PUSH3 0x461BCD PUSH1 0xE5 SHL DUP2 MSTORE PUSH1 0x20 PUSH1 0x4 DUP3 ADD MSTORE PUSH1 0xE PUSH1 0x24 DUP3 ADD MSTORE PUSH14 0x24B73B30B634B21039B2B73232B9 PUSH1 0x91 SHL PUSH1 0x44 DUP3 ADD MSTORE PUSH1 0x64 ADD PUSH1 0x40 MLOAD DUP1 SWAP2 SUB SWAP1 REVERT JUMPDEST POP PUSH1 0x0 SSTORE TIMESTAMP PUSH1 0x2 SSTORE JUMP JUMPDEST CALLER PUSH1 0x14 CALLDATASIZE LT DUP1 ISZERO SWAP1 PUSH2 0x12A JUMPI POP PUSH32 0x0 PUSH1 0x1 PUSH1 0x1 PUSH1 0xA0 SHL SUB AND DUP2 PUSH1 0x1 PUSH1 0x1 PUSH1 0xA0 SHL SUB AND EQ JUMPDEST ISZERO PUSH2 0x13A JUMPI POP PUSH1 0x13 NOT CALLDATASIZE ADD CALLDATALOAD PUSH1 0x60 SHR JUMPDEST SWAP1 JUMP JUMPDEST PUSH1 0x0 PUSH1 0x20 DUP3 DUP5 SUB SLT ISZERO PUSH2 0x14F JUMPI PUSH1 0x0 DUP1 REVERT JUMPDEST POP CALLDATALOAD SWAP2 SWAP1 POP JUMP INVALID LOG2 PUSH5 0x6970667358 0x22 SLT KECCAK256 PUSH3 0x423B6B ISZERO 0xBD 0xED DUP3 MOD 0xA5 EXP 0xBF CREATE DUP7 PUSH12 0x6996C17AD2AF161B0FC6AABA PUSH11 0x12F9146264736F6C634300 ADDMOD GT STOP CALLER "},"methodIdentifiers":{"callback(uint256)":"ff585caf","getLatestTrigger()":"9c793b48","randomValue()":"276801ec"}}}}}